{
  "contractName": "AMM",
  "abi": [
    {
      "inputs": [],
      "stateMutability": "nonpayable",
      "type": "constructor"
    },
    {
      "inputs": [],
      "name": "AMM__Already_inited",
      "type": "error"
    },
    {
      "inputs": [],
      "name": "AMM__Not_Inited",
      "type": "error"
    },
    {
      "anonymous": false,
      "inputs": [
        {
          "indexed": true,
          "internalType": "address",
          "name": "user",
          "type": "address"
        },
        {
          "indexed": false,
          "internalType": "address",
          "name": "tokenIn",
          "type": "address"
        },
        {
          "indexed": false,
          "internalType": "address",
          "name": "tokenOut",
          "type": "address"
        },
        {
          "indexed": false,
          "internalType": "uint256",
          "name": "amountIn",
          "type": "uint256"
        },
        {
          "indexed": false,
          "internalType": "uint256",
          "name": "amountOut",
          "type": "uint256"
        }
      ],
      "name": "Swap",
      "type": "event"
    },
    {
      "inputs": [],
      "name": "r0",
      "outputs": [
        {
          "internalType": "uint256",
          "name": "",
          "type": "uint256"
        }
      ],
      "stateMutability": "view",
      "type": "function"
    },
    {
      "inputs": [],
      "name": "r1",
      "outputs": [
        {
          "internalType": "uint256",
          "name": "",
          "type": "uint256"
        }
      ],
      "stateMutability": "view",
      "type": "function"
    },
    {
      "inputs": [
        {
          "internalType": "address",
          "name": "_token0",
          "type": "address"
        },
        {
          "internalType": "address",
          "name": "_token1",
          "type": "address"
        },
        {
          "internalType": "uint256",
          "name": "initialR0",
          "type": "uint256"
        },
        {
          "internalType": "uint256",
          "name": "initialR1",
          "type": "uint256"
        }
      ],
      "name": "initialize",
      "outputs": [],
      "stateMutability": "nonpayable",
      "type": "function"
    },
    {
      "inputs": [
        {
          "internalType": "bool",
          "name": "isRev",
          "type": "bool"
        },
        {
          "internalType": "uint256",
          "name": "amountIn",
          "type": "uint256"
        }
      ],
      "name": "swap",
      "outputs": [
        {
          "internalType": "uint256",
          "name": "amountOut",
          "type": "uint256"
        }
      ],
      "stateMutability": "nonpayable",
      "type": "function"
    }
  ],
  "bytecode": "0x608060405234801561001057600080fd5b506001600081905550600060038190555060006004819055506000600560006101000a81548160ff021916908315150217905550611010806100536000396000f3fe608060405234801561001057600080fd5b506004361061004c5760003560e01c8063659621b5146100515780636ca5b5b01461006f578063c037646a1461008d578063eb990c59146100bd575b600080fd5b6100596100d9565b6040516100669190610c54565b60405180910390f35b6100776100df565b6040516100849190610c54565b60405180910390f35b6100a760048036038101906100a291906109a2565b6100e5565b6040516100b49190610c54565b60405180910390f35b6100d760048036038101906100d2919061090e565b61027a565b005b60035481565b60045481565b60006002600054141561012d576040517f08c379a000000000000000000000000000000000000000000000000000000000815260040161012490610c34565b60405180910390fd5b6002600081905550600560009054906101000a900460ff1661017b576040517f0d4986ef00000000000000000000000000000000000000000000000000000000815260040160405180910390fd5b600090506000339050836101fc576101df81600160009054906101000a900473ffffffffffffffffffffffffffffffffffffffff16600260009054906101000a900473ffffffffffffffffffffffffffffffffffffffff1660035460045488610410565b60036000600460008498508591905055849190505550505061026b565b61025281600260009054906101000a900473ffffffffffffffffffffffffffffffffffffffff16600160009054906101000a900473ffffffffffffffffffffffffffffffffffffffff1660045460035488610410565b6004600060036000849850859190505584919050555050505b50600160008190555092915050565b600560009054906101000a900460ff16156102c1576040517f865a579300000000000000000000000000000000000000000000000000000000815260040160405180910390fd5b83600160006101000a81548173ffffffffffffffffffffffffffffffffffffffff021916908373ffffffffffffffffffffffffffffffffffffffff16021790555082600260006101000a81548173ffffffffffffffffffffffffffffffffffffffff021916908373ffffffffffffffffffffffffffffffffffffffff160217905550610392333084600160009054906101000a900473ffffffffffffffffffffffffffffffffffffffff1673ffffffffffffffffffffffffffffffffffffffff166104f6909392919063ffffffff16565b6103e1333083600260009054906101000a900473ffffffffffffffffffffffffffffffffffffffff1673ffffffffffffffffffffffffffffffffffffffff166104f6909392919063ffffffff16565b81600381905550806004819055506001600560006101000a81548160ff02191690831515021790555050505050565b600080600061042086868661057f565b905061044f8930868b73ffffffffffffffffffffffffffffffffffffffff166104f6909392919063ffffffff16565b61047a89828973ffffffffffffffffffffffffffffffffffffffff166105b79092919063ffffffff16565b83866104869190610ca1565b925080856104949190610d82565b91508873ffffffffffffffffffffffffffffffffffffffff167fcd3829a3813dc3cdd188fd3d01dcf3268c16be2fdd2dd21d0665418816e46062898987856040516104e29493929190610b44565b60405180910390a296509650969350505050565b610579846323b872dd60e01b85858560405160240161051793929190610b0d565b604051602081830303815290604052907bffffffffffffffffffffffffffffffffffffffffffffffffffffffff19166020820180517bffffffffffffffffffffffffffffffffffffffffffffffffffffffff838183161783525050505061063d565b50505050565b6000818461058d9190610ca1565b83856105999190610d28565b6105a39190610cf7565b836105ae9190610d82565b90509392505050565b6106388363a9059cbb60e01b84846040516024016105d6929190610b89565b604051602081830303815290604052907bffffffffffffffffffffffffffffffffffffffffffffffffffffffff19166020820180517bffffffffffffffffffffffffffffffffffffffffffffffffffffffff838183161783525050505061063d565b505050565b600061069f826040518060400160405280602081526020017f5361666545524332303a206c6f772d6c6576656c2063616c6c206661696c65648152508573ffffffffffffffffffffffffffffffffffffffff166107049092919063ffffffff16565b90506000815111156106ff57808060200190518101906106bf9190610975565b6106fe576040517f08c379a00000000000000000000000000000000000000000000000000000000081526004016106f590610c14565b60405180910390fd5b5b505050565b6060610713848460008561071c565b90509392505050565b606082471015610761576040517f08c379a000000000000000000000000000000000000000000000000000000000815260040161075890610bd4565b60405180910390fd5b61076a85610830565b6107a9576040517f08c379a00000000000000000000000000000000000000000000000000000000081526004016107a090610bf4565b60405180910390fd5b6000808673ffffffffffffffffffffffffffffffffffffffff1685876040516107d29190610af6565b60006040518083038185875af1925050503d806000811461080f576040519150601f19603f3d011682016040523d82523d6000602084013e610814565b606091505b5091509150610824828286610853565b92505050949350505050565b6000808273ffffffffffffffffffffffffffffffffffffffff163b119050919050565b60608315610863578290506108b3565b6000835111156108765782518084602001fd5b816040517f08c379a00000000000000000000000000000000000000000000000000000000081526004016108aa9190610bb2565b60405180910390fd5b9392505050565b6000813590506108c981610f95565b92915050565b6000813590506108de81610fac565b92915050565b6000815190506108f381610fac565b92915050565b60008135905061090881610fc3565b92915050565b6000806000806080858703121561092857610927610e8f565b5b6000610936878288016108ba565b9450506020610947878288016108ba565b9350506040610958878288016108f9565b9250506060610969878288016108f9565b91505092959194509250565b60006020828403121561098b5761098a610e8f565b5b6000610999848285016108e4565b91505092915050565b600080604083850312156109b9576109b8610e8f565b5b60006109c7858286016108cf565b92505060206109d8858286016108f9565b9150509250929050565b6109eb81610db6565b82525050565b60006109fc82610c6f565b610a068185610c85565b9350610a16818560208601610dfe565b80840191505092915050565b6000610a2d82610c7a565b610a378185610c90565b9350610a47818560208601610dfe565b610a5081610e94565b840191505092915050565b6000610a68602683610c90565b9150610a7382610ea5565b604082019050919050565b6000610a8b601d83610c90565b9150610a9682610ef4565b602082019050919050565b6000610aae602a83610c90565b9150610ab982610f1d565b604082019050919050565b6000610ad1601f83610c90565b9150610adc82610f6c565b602082019050919050565b610af081610df4565b82525050565b6000610b0282846109f1565b915081905092915050565b6000606082019050610b2260008301866109e2565b610b2f60208301856109e2565b610b3c6040830184610ae7565b949350505050565b6000608082019050610b5960008301876109e2565b610b6660208301866109e2565b610b736040830185610ae7565b610b806060830184610ae7565b95945050505050565b6000604082019050610b9e60008301856109e2565b610bab6020830184610ae7565b9392505050565b60006020820190508181036000830152610bcc8184610a22565b905092915050565b60006020820190508181036000830152610bed81610a5b565b9050919050565b60006020820190508181036000830152610c0d81610a7e565b9050919050565b60006020820190508181036000830152610c2d81610aa1565b9050919050565b60006020820190508181036000830152610c4d81610ac4565b9050919050565b6000602082019050610c696000830184610ae7565b92915050565b600081519050919050565b600081519050919050565b600081905092915050565b600082825260208201905092915050565b6000610cac82610df4565b9150610cb783610df4565b9250827fffffffffffffffffffffffffffffffffffffffffffffffffffffffffffffffff03821115610cec57610ceb610e31565b5b828201905092915050565b6000610d0282610df4565b9150610d0d83610df4565b925082610d1d57610d1c610e60565b5b828204905092915050565b6000610d3382610df4565b9150610d3e83610df4565b9250817fffffffffffffffffffffffffffffffffffffffffffffffffffffffffffffffff0483118215151615610d7757610d76610e31565b5b828202905092915050565b6000610d8d82610df4565b9150610d9883610df4565b925082821015610dab57610daa610e31565b5b828203905092915050565b6000610dc182610dd4565b9050919050565b60008115159050919050565b600073ffffffffffffffffffffffffffffffffffffffff82169050919050565b6000819050919050565b60005b83811015610e1c578082015181840152602081019050610e01565b83811115610e2b576000848401525b50505050565b7f4e487b7100000000000000000000000000000000000000000000000000000000600052601160045260246000fd5b7f4e487b7100000000000000000000000000000000000000000000000000000000600052601260045260246000fd5b600080fd5b6000601f19601f8301169050919050565b7f416464726573733a20696e73756666696369656e742062616c616e636520666f60008201527f722063616c6c0000000000000000000000000000000000000000000000000000602082015250565b7f416464726573733a2063616c6c20746f206e6f6e2d636f6e7472616374000000600082015250565b7f5361666545524332303a204552433230206f7065726174696f6e20646964206e60008201527f6f74207375636365656400000000000000000000000000000000000000000000602082015250565b7f5265656e7472616e637947756172643a207265656e7472616e742063616c6c00600082015250565b610f9e81610db6565b8114610fa957600080fd5b50565b610fb581610dc8565b8114610fc057600080fd5b50565b610fcc81610df4565b8114610fd757600080fd5b5056fea2646970667358221220aa69d69ea0df8e01be4b12e9199d79df19b8f31e745ae88d99c4a33280c6632964736f6c63430008070033",
  "immutableReferences": {},
  "source": "// SPDX-License-Identifier: BUSL-1.1\r\npragma solidity >=0.8.6;\r\npragma experimental ABIEncoderV2;\r\n\r\nimport { IERC20, SafeERC20 } from \"@openzeppelin/contracts/token/ERC20/utils/SafeERC20.sol\";\r\nimport { ReentrancyGuard } from \"@openzeppelin/contracts/security/ReentrancyGuard.sol\";\r\nimport { ERC20PresetMinterPauser } from \"@openzeppelin/contracts/token/ERC20/presets/ERC20PresetMinterPauser.sol\";\r\nimport { IAMM } from \"./interfaces/IAMM.sol\";\r\nimport { AMMMath } from \"./libraries/AMMMath.sol\";\r\n\r\ncontract AMM is IAMM, ReentrancyGuard {\r\n    using SafeERC20 for IERC20;\r\n\r\n    IERC20 token0;\r\n    IERC20 token1;\r\n    uint256 public r0;\r\n    uint256 public r1;\r\n\r\n    bool inited;\r\n\r\n    constructor() {\r\n        r0 = 0;\r\n        r1 = 0;\r\n        inited = false;\r\n    }\r\n\r\n    modifier isInited() {\r\n        if (!inited) revert AMM__Not_Inited();\r\n        _;\r\n    }\r\n\r\n    function initialize(address _token0, address _token1, uint256 initialR0, uint256 initialR1) external {\r\n        if (inited) revert AMM__Already_inited();\r\n        token0 = IERC20(_token0);\r\n        token1 = IERC20(_token1);\r\n        token0.safeTransferFrom(msg.sender, address(this), initialR0);\r\n        token1.safeTransferFrom(msg.sender, address(this), initialR1);\r\n        r0 = initialR0;\r\n        r1 = initialR1;\r\n        inited = true;\r\n    }\r\n\r\n    function swap(bool isRev, uint256 amountIn) \r\n        nonReentrant\r\n        isInited\r\n        external \r\n        override \r\n        returns (uint256 amountOut) \r\n    {\r\n        amountOut = 0;\r\n        address user = msg.sender;\r\n\r\n        if (!isRev) (r0, r1, amountOut) = _swap(user, token0, token1, r0, r1, amountIn);\r\n        else (r1, r0, amountOut) = _swap(user, token1, token0, r1, r0, amountIn);\r\n    }\r\n\r\n    function _swap(\r\n        address user,\r\n        IERC20 tokenIn,\r\n        IERC20 tokenOut,\r\n        uint256 _rIn,\r\n        uint256 _rOut,\r\n        uint256 amountIn\r\n    ) private returns (uint256 rIn, uint256 rOut, uint256 amountOut) {\r\n        amountOut = AMMMath.calcAmount(_rIn, _rOut, amountIn);\r\n        \r\n        tokenIn.safeTransferFrom(user, address(this), amountIn);\r\n        tokenOut.safeTransfer(user, amountOut);\r\n        rIn = _rIn + amountIn;\r\n        rOut = _rOut - amountOut;\r\n\r\n        emit Swap(user, address(tokenIn), address(tokenOut), amountIn, amountOut);\r\n    }\r\n}\r\n",
  "sourcePath": "E:\\JobHunting\\20220323_PerputalProtocol\\SimpleAMM\\contracts\\AMM.sol",
  "compiler": {
    "name": "solc",
    "version": "0.8.7+commit.e28d00a7.Emscripten.clang"
  },
  "schemaVersion": "3.4.3",
  "updatedAt": "2022-03-24T18:09:25.497Z",
  "devdoc": {
    "kind": "dev",
    "methods": {
      "swap(bool,uint256)": {
        "params": {
          "amountIn": "the amount of tokens deposited"
        }
      }
    },
    "version": 1
  },
  "userdoc": {
    "errors": {
      "AMM__Already_inited()": [
        {
          "notice": "==== ERRORS ==== ///"
        }
      ]
    },
    "events": {
      "Swap(address,address,address,uint256,uint256)": {
        "notice": "==== EVENTS ==== ///"
      }
    },
    "kind": "user",
    "methods": {
      "swap(bool,uint256)": {
        "notice": "@param isRev true if and only if user want to swap from token1 to token0"
      }
    },
    "version": 1
  }
}