{
  "contractName": "LeverageAMM",
  "abi": [
    {
      "inputs": [],
      "stateMutability": "nonpayable",
      "type": "constructor"
    },
    {
      "inputs": [],
      "name": "LeverageAMM__Already_inited",
      "type": "error"
    },
    {
      "inputs": [
        {
          "internalType": "address",
          "name": "",
          "type": "address"
        },
        {
          "internalType": "address",
          "name": "",
          "type": "address"
        }
      ],
      "name": "LeverageAMM__Insufficient_Margin",
      "type": "error"
    },
    {
      "inputs": [
        {
          "internalType": "address",
          "name": "",
          "type": "address"
        }
      ],
      "name": "LeverageAMM__Invalid_Token",
      "type": "error"
    },
    {
      "inputs": [],
      "name": "LeverageAMM__Not_Inited",
      "type": "error"
    },
    {
      "anonymous": false,
      "inputs": [
        {
          "indexed": true,
          "internalType": "address",
          "name": "user",
          "type": "address"
        },
        {
          "indexed": false,
          "internalType": "address",
          "name": "token",
          "type": "address"
        },
        {
          "indexed": false,
          "internalType": "uint256",
          "name": "amount",
          "type": "uint256"
        }
      ],
      "name": "Deposit",
      "type": "event"
    },
    {
      "anonymous": false,
      "inputs": [
        {
          "indexed": true,
          "internalType": "address",
          "name": "user",
          "type": "address"
        },
        {
          "indexed": false,
          "internalType": "address",
          "name": "tokenIn",
          "type": "address"
        },
        {
          "indexed": false,
          "internalType": "address",
          "name": "tokenOut",
          "type": "address"
        },
        {
          "indexed": false,
          "internalType": "uint256",
          "name": "amountIn",
          "type": "uint256"
        },
        {
          "indexed": false,
          "internalType": "uint256",
          "name": "amountOut",
          "type": "uint256"
        }
      ],
      "name": "Swap",
      "type": "event"
    },
    {
      "anonymous": false,
      "inputs": [
        {
          "indexed": true,
          "internalType": "address",
          "name": "user",
          "type": "address"
        },
        {
          "indexed": false,
          "internalType": "address",
          "name": "token",
          "type": "address"
        },
        {
          "indexed": false,
          "internalType": "uint256",
          "name": "amount",
          "type": "uint256"
        }
      ],
      "name": "Withdraw",
      "type": "event"
    },
    {
      "inputs": [
        {
          "internalType": "address",
          "name": "",
          "type": "address"
        },
        {
          "internalType": "address",
          "name": "",
          "type": "address"
        }
      ],
      "name": "lockedMargin",
      "outputs": [
        {
          "internalType": "uint256",
          "name": "",
          "type": "uint256"
        }
      ],
      "stateMutability": "view",
      "type": "function"
    },
    {
      "inputs": [
        {
          "internalType": "address",
          "name": "",
          "type": "address"
        },
        {
          "internalType": "address",
          "name": "",
          "type": "address"
        }
      ],
      "name": "margin",
      "outputs": [
        {
          "internalType": "uint256",
          "name": "",
          "type": "uint256"
        }
      ],
      "stateMutability": "view",
      "type": "function"
    },
    {
      "inputs": [],
      "name": "maxLeverage",
      "outputs": [
        {
          "internalType": "uint256",
          "name": "",
          "type": "uint256"
        }
      ],
      "stateMutability": "view",
      "type": "function"
    },
    {
      "inputs": [
        {
          "internalType": "address",
          "name": "",
          "type": "address"
        },
        {
          "internalType": "address",
          "name": "",
          "type": "address"
        }
      ],
      "name": "positionAmount",
      "outputs": [
        {
          "internalType": "uint256",
          "name": "",
          "type": "uint256"
        }
      ],
      "stateMutability": "view",
      "type": "function"
    },
    {
      "inputs": [],
      "name": "r0",
      "outputs": [
        {
          "internalType": "uint256",
          "name": "",
          "type": "uint256"
        }
      ],
      "stateMutability": "view",
      "type": "function"
    },
    {
      "inputs": [],
      "name": "r1",
      "outputs": [
        {
          "internalType": "uint256",
          "name": "",
          "type": "uint256"
        }
      ],
      "stateMutability": "view",
      "type": "function"
    },
    {
      "inputs": [
        {
          "internalType": "address",
          "name": "_token0",
          "type": "address"
        },
        {
          "internalType": "address",
          "name": "_token1",
          "type": "address"
        },
        {
          "internalType": "uint256",
          "name": "initialR0",
          "type": "uint256"
        },
        {
          "internalType": "uint256",
          "name": "initialR1",
          "type": "uint256"
        },
        {
          "internalType": "uint256",
          "name": "_maxLeverage",
          "type": "uint256"
        }
      ],
      "name": "initialize",
      "outputs": [],
      "stateMutability": "nonpayable",
      "type": "function"
    },
    {
      "inputs": [
        {
          "internalType": "address",
          "name": "token",
          "type": "address"
        },
        {
          "internalType": "uint256",
          "name": "amount",
          "type": "uint256"
        }
      ],
      "name": "deposit",
      "outputs": [],
      "stateMutability": "nonpayable",
      "type": "function"
    },
    {
      "inputs": [
        {
          "internalType": "address",
          "name": "token",
          "type": "address"
        },
        {
          "internalType": "uint256",
          "name": "amount",
          "type": "uint256"
        }
      ],
      "name": "withdraw",
      "outputs": [],
      "stateMutability": "nonpayable",
      "type": "function"
    },
    {
      "inputs": [
        {
          "internalType": "address",
          "name": "token",
          "type": "address"
        },
        {
          "internalType": "uint256",
          "name": "leverage",
          "type": "uint256"
        }
      ],
      "name": "openPosition",
      "outputs": [],
      "stateMutability": "nonpayable",
      "type": "function"
    },
    {
      "inputs": [
        {
          "internalType": "address",
          "name": "tokenOut",
          "type": "address"
        },
        {
          "internalType": "uint256",
          "name": "leverage",
          "type": "uint256"
        },
        {
          "internalType": "uint256",
          "name": "amountIn",
          "type": "uint256"
        }
      ],
      "name": "calcAmount",
      "outputs": [
        {
          "internalType": "uint256",
          "name": "amountOut",
          "type": "uint256"
        }
      ],
      "stateMutability": "view",
      "type": "function"
    },
    {
      "inputs": [
        {
          "internalType": "address",
          "name": "user",
          "type": "address"
        },
        {
          "internalType": "address",
          "name": "token",
          "type": "address"
        }
      ],
      "name": "remainAmount",
      "outputs": [
        {
          "internalType": "uint256",
          "name": "remainValue",
          "type": "uint256"
        },
        {
          "internalType": "uint256",
          "name": "positionValue",
          "type": "uint256"
        }
      ],
      "stateMutability": "view",
      "type": "function"
    }
  ],
  "bytecode": "0x608060405234801561001057600080fd5b50600160008190555060006003819055506000600481905550600a6005819055506000600960006101000a81548160ff021916908315150217905550611f408061005b6000396000f3fe608060405234801561001057600080fd5b50600436106100b45760003560e01c8063ae3302c211610071578063ae3302c21461018d578063b0b7bc06146101ab578063c8a21dc1146101dc578063d13f90b41461020c578063f248bf1f14610228578063f3fef3a314610258576100b4565b8063197897fc146100b957806347e7ef24146100d557806361455189146100f1578063659621b5146101215780636ca5b5b01461013f5780639735d4601461015d575b600080fd5b6100d360048036038101906100ce9190611896565b610274565b005b6100ef60048036038101906100ea9190611896565b6106e2565b005b61010b600480360381019061010691906117db565b610932565b6040516101189190611b84565b60405180910390f35b610129610957565b6040516101369190611b84565b60405180910390f35b61014761095d565b6040516101549190611b84565b60405180910390f35b610177600480360381019061017291906117db565b610963565b6040516101849190611b84565b60405180910390f35b610195610988565b6040516101a29190611b84565b60405180910390f35b6101c560048036038101906101c091906117db565b61098e565b6040516101d3929190611b9f565b60405180910390f35b6101f660048036038101906101f191906117db565b610be4565b6040516102039190611b84565b60405180910390f35b6102266004803603810190610221919061181b565b610c09565b005b610242600480360381019061023d91906118d6565b610da7565b60405161024f9190611b84565b60405180910390f35b610272600480360381019061026d9190611896565b610f7a565b005b600960009054906101000a900460ff166102ba576040517f963b582900000000000000000000000000000000000000000000000000000000815260040160405180910390fd5b81600160009054906101000a900473ffffffffffffffffffffffffffffffffffffffff1673ffffffffffffffffffffffffffffffffffffffff168173ffffffffffffffffffffffffffffffffffffffff16141580156103675750600260009054906101000a900473ffffffffffffffffffffffffffffffffffffffff1673ffffffffffffffffffffffffffffffffffffffff168173ffffffffffffffffffffffffffffffffffffffff1614155b156103a957806040517f14e25c180000000000000000000000000000000000000000000000000000000081526004016103a09190611a5e565b60405180910390fd5b60006103b48461132b565b9050600084905060003390506000600660008373ffffffffffffffffffffffffffffffffffffffff1673ffffffffffffffffffffffffffffffffffffffff16815260200190815260200160002060008573ffffffffffffffffffffffffffffffffffffffff1673ffffffffffffffffffffffffffffffffffffffff1681526020019081526020016000205490506000600760008473ffffffffffffffffffffffffffffffffffffffff1673ffffffffffffffffffffffffffffffffffffffff16815260200190815260200160002060008673ffffffffffffffffffffffffffffffffffffffff1673ffffffffffffffffffffffffffffffffffffffff16815260200190815260200160002054905060008083896104d19190611c81565b9050600260009054906101000a900473ffffffffffffffffffffffffffffffffffffffff1673ffffffffffffffffffffffffffffffffffffffff168673ffffffffffffffffffffffffffffffffffffffff16141561053f57610538600354600454836113d8565b9150610551565b61054e600454600354836113d8565b91505b8360055461055f9190611c81565b818461056b9190611bfa565b11156105b05784876040517fa66ca1bc0000000000000000000000000000000000000000000000000000000081526004016105a7929190611a79565b60405180910390fd5b80600760008773ffffffffffffffffffffffffffffffffffffffff1673ffffffffffffffffffffffffffffffffffffffff16815260200190815260200160002060008973ffffffffffffffffffffffffffffffffffffffff1673ffffffffffffffffffffffffffffffffffffffff168152602001908152602001600020600082825461063c9190611bfa565b9250508190555081600860008773ffffffffffffffffffffffffffffffffffffffff1673ffffffffffffffffffffffffffffffffffffffff16815260200190815260200160002060008873ffffffffffffffffffffffffffffffffffffffff1673ffffffffffffffffffffffffffffffffffffffff16815260200190815260200160002060008282546106cf9190611bfa565b9250508190555050505050505050505050565b600960009054906101000a900460ff16610728576040517f963b582900000000000000000000000000000000000000000000000000000000815260040160405180910390fd5b81600160009054906101000a900473ffffffffffffffffffffffffffffffffffffffff1673ffffffffffffffffffffffffffffffffffffffff168173ffffffffffffffffffffffffffffffffffffffff16141580156107d55750600260009054906101000a900473ffffffffffffffffffffffffffffffffffffffff1673ffffffffffffffffffffffffffffffffffffffff168173ffffffffffffffffffffffffffffffffffffffff1614155b1561081757806040517f14e25c1800000000000000000000000000000000000000000000000000000000815260040161080e9190611a5e565b60405180910390fd5b60003390506108498130858773ffffffffffffffffffffffffffffffffffffffff16611410909392919063ffffffff16565b82600660008373ffffffffffffffffffffffffffffffffffffffff1673ffffffffffffffffffffffffffffffffffffffff16815260200190815260200160002060008673ffffffffffffffffffffffffffffffffffffffff1673ffffffffffffffffffffffffffffffffffffffff16815260200190815260200160002060008282546108d59190611bfa565b925050819055508073ffffffffffffffffffffffffffffffffffffffff167f5548c837ab068cf56a2c2479df0882a4922fd203edb7517321831d95078c5f628585604051610924929190611ad9565b60405180910390a250505050565b6006602052816000526040600020602052806000526040600020600091509150505481565b60035481565b60045481565b6008602052816000526040600020602052806000526040600020600091509150505481565b60055481565b600080600960009054906101000a900460ff166109d7576040517f963b582900000000000000000000000000000000000000000000000000000000815260040160405180910390fd5b82600160009054906101000a900473ffffffffffffffffffffffffffffffffffffffff1673ffffffffffffffffffffffffffffffffffffffff168173ffffffffffffffffffffffffffffffffffffffff1614158015610a845750600260009054906101000a900473ffffffffffffffffffffffffffffffffffffffff1673ffffffffffffffffffffffffffffffffffffffff168173ffffffffffffffffffffffffffffffffffffffff1614155b15610ac657806040517f14e25c18000000000000000000000000000000000000000000000000000000008152600401610abd9190611a5e565b60405180910390fd5b600760008673ffffffffffffffffffffffffffffffffffffffff1673ffffffffffffffffffffffffffffffffffffffff16815260200190815260200160002060008573ffffffffffffffffffffffffffffffffffffffff1673ffffffffffffffffffffffffffffffffffffffff16815260200190815260200160002054915081600554600660008873ffffffffffffffffffffffffffffffffffffffff1673ffffffffffffffffffffffffffffffffffffffff16815260200190815260200160002060008773ffffffffffffffffffffffffffffffffffffffff1673ffffffffffffffffffffffffffffffffffffffff16815260200190815260200160002054610bd09190611c81565b610bda9190611cdb565b9250509250929050565b6007602052816000526040600020602052806000526040600020600091509150505481565b600960009054906101000a900460ff1615610c50576040517f63e80fca00000000000000000000000000000000000000000000000000000000815260040160405180910390fd5b84600160006101000a81548173ffffffffffffffffffffffffffffffffffffffff021916908373ffffffffffffffffffffffffffffffffffffffff16021790555083600260006101000a81548173ffffffffffffffffffffffffffffffffffffffff021916908373ffffffffffffffffffffffffffffffffffffffff160217905550610d21333085600160009054906101000a900473ffffffffffffffffffffffffffffffffffffffff1673ffffffffffffffffffffffffffffffffffffffff16611410909392919063ffffffff16565b610d70333084600260009054906101000a900473ffffffffffffffffffffffffffffffffffffffff1673ffffffffffffffffffffffffffffffffffffffff16611410909392919063ffffffff16565b8260038190555081600481905550806005819055506001600960006101000a81548160ff0219169083151502179055505050505050565b6000600960009054906101000a900460ff16610def576040517f963b582900000000000000000000000000000000000000000000000000000000815260040160405180910390fd5b83600160009054906101000a900473ffffffffffffffffffffffffffffffffffffffff1673ffffffffffffffffffffffffffffffffffffffff168173ffffffffffffffffffffffffffffffffffffffff1614158015610e9c5750600260009054906101000a900473ffffffffffffffffffffffffffffffffffffffff1673ffffffffffffffffffffffffffffffffffffffff168173ffffffffffffffffffffffffffffffffffffffff1614155b15610ede57806040517f14e25c18000000000000000000000000000000000000000000000000000000008152600401610ed59190611a5e565b60405180910390fd5b600260009054906101000a900473ffffffffffffffffffffffffffffffffffffffff1673ffffffffffffffffffffffffffffffffffffffff168573ffffffffffffffffffffffffffffffffffffffff161415610f5557610f4e6003546004548587610f499190611c81565b6113d8565b9150610f72565b610f6f6004546003548587610f6a9190611c81565b6113d8565b91505b509392505050565b600960009054906101000a900460ff16610fc0576040517f963b582900000000000000000000000000000000000000000000000000000000815260040160405180910390fd5b81600160009054906101000a900473ffffffffffffffffffffffffffffffffffffffff1673ffffffffffffffffffffffffffffffffffffffff168173ffffffffffffffffffffffffffffffffffffffff161415801561106d5750600260009054906101000a900473ffffffffffffffffffffffffffffffffffffffff1673ffffffffffffffffffffffffffffffffffffffff168173ffffffffffffffffffffffffffffffffffffffff1614155b156110af57806040517f14e25c180000000000000000000000000000000000000000000000000000000081526004016110a69190611a5e565b60405180910390fd5b60003390506000600660008373ffffffffffffffffffffffffffffffffffffffff1673ffffffffffffffffffffffffffffffffffffffff16815260200190815260200160002060008673ffffffffffffffffffffffffffffffffffffffff1673ffffffffffffffffffffffffffffffffffffffff1681526020019081526020016000205490506000600760008473ffffffffffffffffffffffffffffffffffffffff1673ffffffffffffffffffffffffffffffffffffffff16815260200190815260200160002060008773ffffffffffffffffffffffffffffffffffffffff1673ffffffffffffffffffffffffffffffffffffffff1681526020019081526020016000205490508060055486846111c69190611cdb565b6111d09190611c81565b10156112155782866040517fa66ca1bc00000000000000000000000000000000000000000000000000000000815260040161120c929190611a79565b60405180910390fd5b84600660008573ffffffffffffffffffffffffffffffffffffffff1673ffffffffffffffffffffffffffffffffffffffff16815260200190815260200160002060008873ffffffffffffffffffffffffffffffffffffffff1673ffffffffffffffffffffffffffffffffffffffff16815260200190815260200160002060008282546112a19190611cdb565b925050819055506112d383868873ffffffffffffffffffffffffffffffffffffffff166114999092919063ffffffff16565b3373ffffffffffffffffffffffffffffffffffffffff167f9b1bfa7fa9ee420a16e124f794c35ac9f90472acc99140eb2f6447c714cad8eb878760405161131b929190611ad9565b60405180910390a2505050505050565b6000600160009054906101000a900473ffffffffffffffffffffffffffffffffffffffff1673ffffffffffffffffffffffffffffffffffffffff168273ffffffffffffffffffffffffffffffffffffffff1614156113ad57600260009054906101000a900473ffffffffffffffffffffffffffffffffffffffff1690506113d3565b600160009054906101000a900473ffffffffffffffffffffffffffffffffffffffff1690505b919050565b600081846113e69190611bfa565b83856113f29190611c81565b6113fc9190611c50565b836114079190611cdb565b90509392505050565b611493846323b872dd60e01b85858560405160240161143193929190611aa2565b604051602081830303815290604052907bffffffffffffffffffffffffffffffffffffffffffffffffffffffff19166020820180517bffffffffffffffffffffffffffffffffffffffffffffffffffffffff838183161783525050505061151f565b50505050565b61151a8363a9059cbb60e01b84846040516024016114b8929190611ad9565b604051602081830303815290604052907bffffffffffffffffffffffffffffffffffffffffffffffffffffffff19166020820180517bffffffffffffffffffffffffffffffffffffffffffffffffffffffff838183161783525050505061151f565b505050565b6000611581826040518060400160405280602081526020017f5361666545524332303a206c6f772d6c6576656c2063616c6c206661696c65648152508573ffffffffffffffffffffffffffffffffffffffff166115e69092919063ffffffff16565b90506000815111156115e157808060200190518101906115a19190611929565b6115e0576040517f08c379a00000000000000000000000000000000000000000000000000000000081526004016115d790611b64565b60405180910390fd5b5b505050565b60606115f584846000856115fe565b90509392505050565b606082471015611643576040517f08c379a000000000000000000000000000000000000000000000000000000000815260040161163a90611b24565b60405180910390fd5b61164c85611712565b61168b576040517f08c379a000000000000000000000000000000000000000000000000000000000815260040161168290611b44565b60405180910390fd5b6000808673ffffffffffffffffffffffffffffffffffffffff1685876040516116b49190611a47565b60006040518083038185875af1925050503d80600081146116f1576040519150601f19603f3d011682016040523d82523d6000602084013e6116f6565b606091505b5091509150611706828286611735565b92505050949350505050565b6000808273ffffffffffffffffffffffffffffffffffffffff163b119050919050565b6060831561174557829050611795565b6000835111156117585782518084602001fd5b816040517f08c379a000000000000000000000000000000000000000000000000000000000815260040161178c9190611b02565b60405180910390fd5b9392505050565b6000813590506117ab81611ec5565b92915050565b6000815190506117c081611edc565b92915050565b6000813590506117d581611ef3565b92915050565b600080604083850312156117f2576117f1611de8565b5b60006118008582860161179c565b92505060206118118582860161179c565b9150509250929050565b600080600080600060a0868803121561183757611836611de8565b5b60006118458882890161179c565b95505060206118568882890161179c565b9450506040611867888289016117c6565b9350506060611878888289016117c6565b9250506080611889888289016117c6565b9150509295509295909350565b600080604083850312156118ad576118ac611de8565b5b60006118bb8582860161179c565b92505060206118cc858286016117c6565b9150509250929050565b6000806000606084860312156118ef576118ee611de8565b5b60006118fd8682870161179c565b935050602061190e868287016117c6565b925050604061191f868287016117c6565b9150509250925092565b60006020828403121561193f5761193e611de8565b5b600061194d848285016117b1565b91505092915050565b61195f81611d0f565b82525050565b600061197082611bc8565b61197a8185611bde565b935061198a818560208601611d57565b80840191505092915050565b60006119a182611bd3565b6119ab8185611be9565b93506119bb818560208601611d57565b6119c481611ded565b840191505092915050565b60006119dc602683611be9565b91506119e782611dfe565b604082019050919050565b60006119ff601d83611be9565b9150611a0a82611e4d565b602082019050919050565b6000611a22602a83611be9565b9150611a2d82611e76565b604082019050919050565b611a4181611d4d565b82525050565b6000611a538284611965565b915081905092915050565b6000602082019050611a736000830184611956565b92915050565b6000604082019050611a8e6000830185611956565b611a9b6020830184611956565b9392505050565b6000606082019050611ab76000830186611956565b611ac46020830185611956565b611ad16040830184611a38565b949350505050565b6000604082019050611aee6000830185611956565b611afb6020830184611a38565b9392505050565b60006020820190508181036000830152611b1c8184611996565b905092915050565b60006020820190508181036000830152611b3d816119cf565b9050919050565b60006020820190508181036000830152611b5d816119f2565b9050919050565b60006020820190508181036000830152611b7d81611a15565b9050919050565b6000602082019050611b996000830184611a38565b92915050565b6000604082019050611bb46000830185611a38565b611bc16020830184611a38565b9392505050565b600081519050919050565b600081519050919050565b600081905092915050565b600082825260208201905092915050565b6000611c0582611d4d565b9150611c1083611d4d565b9250827fffffffffffffffffffffffffffffffffffffffffffffffffffffffffffffffff03821115611c4557611c44611d8a565b5b828201905092915050565b6000611c5b82611d4d565b9150611c6683611d4d565b925082611c7657611c75611db9565b5b828204905092915050565b6000611c8c82611d4d565b9150611c9783611d4d565b9250817fffffffffffffffffffffffffffffffffffffffffffffffffffffffffffffffff0483118215151615611cd057611ccf611d8a565b5b828202905092915050565b6000611ce682611d4d565b9150611cf183611d4d565b925082821015611d0457611d03611d8a565b5b828203905092915050565b6000611d1a82611d2d565b9050919050565b60008115159050919050565b600073ffffffffffffffffffffffffffffffffffffffff82169050919050565b6000819050919050565b60005b83811015611d75578082015181840152602081019050611d5a565b83811115611d84576000848401525b50505050565b7f4e487b7100000000000000000000000000000000000000000000000000000000600052601160045260246000fd5b7f4e487b7100000000000000000000000000000000000000000000000000000000600052601260045260246000fd5b600080fd5b6000601f19601f8301169050919050565b7f416464726573733a20696e73756666696369656e742062616c616e636520666f60008201527f722063616c6c0000000000000000000000000000000000000000000000000000602082015250565b7f416464726573733a2063616c6c20746f206e6f6e2d636f6e7472616374000000600082015250565b7f5361666545524332303a204552433230206f7065726174696f6e20646964206e60008201527f6f74207375636365656400000000000000000000000000000000000000000000602082015250565b611ece81611d0f565b8114611ed957600080fd5b50565b611ee581611d21565b8114611ef057600080fd5b50565b611efc81611d4d565b8114611f0757600080fd5b5056fea26469706673582212205952694469d741dcc17fc1da8a5340979f99d7f4af3cdff51ba81579780e126164736f6c63430008070033",
  "immutableReferences": {},
  "source": "// SPDX-License-Identifier: BUSL-1.1\r\npragma solidity >=0.8.6;\r\npragma experimental ABIEncoderV2;\r\n\r\nimport { IERC20, SafeERC20 } from \"@openzeppelin/contracts/token/ERC20/utils/SafeERC20.sol\";\r\nimport { ReentrancyGuard } from \"@openzeppelin/contracts/security/ReentrancyGuard.sol\";\r\nimport { ERC20PresetMinterPauser } from \"@openzeppelin/contracts/token/ERC20/presets/ERC20PresetMinterPauser.sol\";\r\nimport { ILeverageAMM } from \"./interfaces/ILeverageAMM.sol\";\r\nimport { AMMMath } from \"./libraries/AMMMath.sol\";\r\n\r\ncontract LeverageAMM is ILeverageAMM, ReentrancyGuard {\r\n    using SafeERC20 for IERC20;\r\n\r\n    IERC20 token0;\r\n    IERC20 token1;\r\n    uint256 public r0;\r\n    uint256 public r1;\r\n    uint256 public maxLeverage;\r\n\r\n    mapping(address => mapping(address => uint256)) public margin;\r\n    mapping(address => mapping(address => uint256)) public lockedMargin;\r\n    mapping(address => mapping(address => uint256)) public positionAmount;\r\n\r\n    bool inited;\r\n\r\n    constructor() {\r\n        r0 = 0;\r\n        r1 = 0;\r\n        maxLeverage = 10;\r\n        inited = false;\r\n    }\r\n\r\n    modifier isInited() {\r\n        if (!inited) revert LeverageAMM__Not_Inited();\r\n        _;\r\n    }\r\n\r\n    modifier isValidToken(address token) {\r\n        if (token != address(token0) && token != address(token1)) revert LeverageAMM__Invalid_Token(token);\r\n        _;\r\n    }\r\n\r\n    function initialize(address _token0, address _token1, uint256 initialR0, uint256 initialR1, uint256 _maxLeverage) external {\r\n        if (inited) revert LeverageAMM__Already_inited();\r\n        token0 = IERC20(_token0);\r\n        token1 = IERC20(_token1);\r\n        token0.safeTransferFrom(msg.sender, address(this), initialR0);\r\n        token1.safeTransferFrom(msg.sender, address(this), initialR1);\r\n        r0 = initialR0;\r\n        r1 = initialR1;\r\n        maxLeverage = _maxLeverage;\r\n        inited = true;\r\n    }\r\n\r\n    function deposit(address token, uint256 amount) isInited isValidToken(token) external {\r\n        address user = msg.sender;\r\n        IERC20(token).safeTransferFrom(user, address(this), amount);\r\n        margin[user][token] += amount;\r\n        emit Deposit(user, token, amount);\r\n    }\r\n\r\n    function withdraw(address token, uint256 amount) isInited isValidToken(token) external {\r\n        address user = msg.sender;\r\n\r\n        uint256 _margin = margin[user][token];\r\n        uint256 _lockedMargin = lockedMargin[user][token];\r\n        if ((_margin - amount) * maxLeverage < _lockedMargin)\r\n            revert LeverageAMM__Insufficient_Margin(user, token);\r\n\r\n        margin[user][token] -= amount;\r\n        IERC20(token).safeTransfer(user, amount);\r\n        emit Withdraw(msg.sender, token, amount);\r\n    }\r\n\r\n    function openPosition(address token, uint256 leverage) \r\n        isInited\r\n        isValidToken(token)\r\n        external \r\n        override\r\n    {\r\n        address tokenIn = _revToken(token);\r\n        address tokenOut = token;\r\n\r\n        address user = msg.sender;\r\n\r\n        uint256 _margin = margin[user][tokenIn];\r\n        uint256 _lockedMargin = lockedMargin[user][tokenIn];\r\n\r\n        uint256 amountOut;\r\n        uint256 amountIn = leverage * _margin;\r\n        if (tokenOut == address(token1)) {\r\n            amountOut = AMMMath.calcAmount(r0, r1, amountIn);\r\n        }\r\n        else {\r\n            amountOut = AMMMath.calcAmount(r1, r0, amountIn);\r\n        }\r\n\r\n        if (_lockedMargin + amountIn > maxLeverage * _margin) {\r\n            revert LeverageAMM__Insufficient_Margin(user, tokenIn);\r\n        }\r\n        \r\n        lockedMargin[user][tokenIn] += amountIn;\r\n        positionAmount[user][tokenOut] += amountOut;\r\n    }\r\n    \r\n    function calcAmount(address tokenOut, uint256 leverage, uint256 amountIn) \r\n        isInited\r\n        isValidToken(tokenOut)\r\n        external\r\n        view\r\n        override\r\n        returns (uint256 amountOut)\r\n    {\r\n        if (tokenOut == address(token1)) {\r\n            amountOut = AMMMath.calcAmount(r0, r1, leverage * amountIn);\r\n        }\r\n        else {\r\n            amountOut = AMMMath.calcAmount(r1, r0, leverage * amountIn);\r\n        }\r\n    }\r\n\r\n    function remainAmount(address user, address token) \r\n        isInited\r\n        isValidToken(token) \r\n        external \r\n        view \r\n        override\r\n        returns (uint256 remainValue, uint256 positionValue) \r\n    {\r\n        positionValue = lockedMargin[user][token];\r\n        remainValue = margin[user][token] * maxLeverage - positionValue;\r\n    }\r\n\r\n    // if token == token0 => return token1, vice versa\r\n    function _revToken(address token) private view returns (address) {\r\n        if (token == address(token0)) return address(token1);\r\n        return address(token0);\r\n    }\r\n}\r\n",
  "sourcePath": "E:\\JobHunting\\20220323_PerputalProtocol\\SimpleAMM\\contracts\\LeverageAMM.sol",
  "compiler": {
    "name": "solc",
    "version": "0.8.7+commit.e28d00a7.Emscripten.clang"
  },
  "schemaVersion": "3.4.3",
  "updatedAt": "2022-03-24T18:09:25.508Z",
  "devdoc": {
    "kind": "dev",
    "methods": {},
    "version": 1
  },
  "userdoc": {
    "errors": {
      "LeverageAMM__Already_inited()": [
        {
          "notice": "==== ERRORS ==== ///"
        }
      ]
    },
    "events": {
      "Swap(address,address,address,uint256,uint256)": {
        "notice": "==== EVENTS ==== ///"
      }
    },
    "kind": "user",
    "methods": {},
    "version": 1
  }
}